:020000040000FA
:100000000C9462000C948A000C948A000C948A0070
:100010000C948A000C948A000C948A000C948A0038
:100020000C948A000C948A000C948A000C942A0484
:100030000C948A000C948A000C948A000C948A0018
:100040000C94E0030C948A000C94AE030C94880387
:100050000C948A000C948A000C948A000C948A00F8
:100060000C948A000C948A000000000024002700F1
:100070002A0000000000250028002B0000000000DE
:1000800023002600290004040404040404040202DA
:100090000202020203030303030301020408102007
:1000A0004080010204081020010204081020000012
:1000B0000008000201000003040700000000000027
:1000C0000000E60411241FBECFEFD8E0DEBFCDBF95
:1000D00012E0A0E0B1E0EEECF3E102C005900D9279
:1000E000A635B107D9F723E0A6E5B2E001C01D921D
:1000F000A532B207E1F710E0C2E6D0E004C02197D4
:10010000FE010E94DF09C136D107C9F70E944305ED
:100110000C94E5090C9400008F929F92AF92BF92CD
:10012000FF920F931F93CF93DF93F09022032BE066
:100130002F1508F44CC02091240308E512E0021B9F
:10014000110927FD1395000F111F000F111F20919A
:100150002303C8E8D0E0C21BD10927FDD395CC0FFB
:10016000DD1FCC0FDD1F4E010D2E000CAA08BB08B1
:100170009801012E000C440B550B281939094A0926
:100180005B09DC010E94D00724EB30E040E050E046
:100190000E94A607820E931EA41EB51E8C169D06F5
:1001A0002CF0E801801691060CF4E4012297CC0FA4
:1001B000DD1F2FB7F8948F2D90E0FC01EE0FFF1F8D
:1001C000E80FF91FE350FD4FD283C1832FBFDF91AA
:1001D000CF911F910F91FF90BF90AF909F908F9004
:1001E00008958F929F92AF92BF92CF92DF92EF923B
:1001F000FF928091240358E5C52E52E0D52EC81AEF
:10020000D10887FDD394CC0CDD1CCC0CDD1C0D2C4F
:10021000000CEE08FF088091230378E8872E912CCC
:10022000881A910887FD9394880C991C880C991C56
:10023000092C000CAA08BB08809122038F3FD1F142
:1002400090E0FC01EE0FFF1FE80FF91FE350FD4F98
:100250008181928133E0880F991F3A95E1F7B0E0F0
:10026000A0E044E0B595A795979587954A95D1F775
:1002700002969C012F5F3F4F032E000C440B550B41
:10028000281939094A095B09A4EBB0E00E94C507A7
:10029000A7019601281939094A095B090E94A60796
:1002A000C901FF90EF90DF90CF90BF90AF909F90EB
:1002B0008F90089590E080E0DCCFAF92BF92CF9214
:1002C000DF92EF92FF920F931F93CF93DF936C0116
:1002D0007B018B01040F151FEB015E01AE18BF08F7
:1002E000C017D10759F06991D601ED91FC910190A9
:1002F000F081E02DC6010995892B79F7C501DF91C1
:10030000CF911F910F91FF90EF90DF90CF90BF9012
:10031000AF900895FC01538D448D252F30E0842F3C
:1003200090E0821B930B541710F0CF96089501971D
:100330000895FC01918D828D981761F0A28DAE0F0A
:10034000BF2FB11D5D968C91928D9F5F9F73928F91
:1003500090E008958FEF9FEF0895FC01918D828DBD
:10036000981731F0828DE80FF11D858D90E008958A
:100370008FEF9FEF0895FC01918D228D892F90E0E2
:10038000805C9F4F821B91098F739927089580E6A7
:1003900092E00E94BB0121E0892B09F420E0822F2A
:1003A000089580E090E0892B29F00E94C701811117
:1003B0000C9400000895FC01A48DA80FB92FB11D65
:1003C000A35ABF4F2C91848D90E001968F7399278B
:1003D000848FA689B7892C93A089B1898C91837069
:1003E00080648C93938D848D981306C00288F38962
:1003F000E02D80818F7D80830895EF92FF920F938F
:100400001F93CF93DF93EC0181E0888F9B8D8C8DC0
:1004100098131AC0E889F989808185FF15C09FB7B4
:10042000F894EE89FF896083E889F9898081837077
:10043000806480839FBF81E090E0DF91CF911F9126
:100440000F91FF90EF900895F62E0B8D10E00F5F47
:100450001F4F0F731127E02E8C8D8E110CC00FB61D
:1004600007FCFACFE889F989808185FFF5CFCE01B5
:100470000E94DB01F1CFEB8DEC0FFD2FF11DE35A54
:10048000FF4FF0829FB7F8940B8FEA89FB89808138
:100490008062CFCFCF93DF93EC01888D8823B9F0B2
:1004A000AA89BB89E889F9898C9185FD03C080817F
:1004B00086FD0DC00FB607FCF7CF8C9185FFF2CFFC
:1004C000808185FFEDCFCE010E94DB01E9CFDF9176
:1004D000CF910895833081F028F4813099F08230F3
:1004E000A9F008958730A9F08830C9F08430B1F4BC
:1004F000809180008F7D03C0809180008F778093F2
:100500008000089584B58F7784BD089584B58F7D6C
:10051000FBCF8091B0008F778093B00008958091D9
:10052000B0008F7DF9CF1F93CF93DF93282F30E05A
:10053000F901E255FF4F8491F901E656FF4FD4913E
:10054000F901EA57FF4FC491CC23A9F0162F81116E
:100550000E946A02EC2FF0E0EE0FFF1FEE58FF4FF3
:10056000A591B4918FB7F894EC91111108C0D09572
:10057000DE23DC938FBFDF91CF911F910895DE2B97
:10058000F8CFCF93DF9390E0FC01E656FF4F249124
:100590008A579F4FFC0184918823D1F090E0880F07
:1005A000991FFC01E859FF4FA591B491FC01EE5849
:1005B000FF4FC591D49161110EC09FB7F8948C91F3
:1005C000E22FE0958E238C932881E223E8839FBF5E
:1005D000DF91CF9108958FB7F894EC91E22BEC93D3
:1005E0008FBFF6CF8E50806480937C0080917A001C
:1005F000806480937A0080917A0086FDFCCF8091A0
:1006000078009091790008953FB7F89480915C024A
:1006100090915D02A0915E02B0915F0226B5A89B09
:1006200005C02F3F19F00196A11DB11D3FBFBA2F84
:10063000A92F982F8827BC01CD01620F711D811D44
:10064000911D42E0660F771F881F991F4A95D1F7C9
:100650000895FC0101900020E9F73197AF01481B94
:10066000590BBC0180E692E00C945D018F929F9241
:10067000AF92BF920F931F93CF93DF93CDB7DEB7A7
:10068000A1970FB6F894DEBF0FBECDBF19A24230BE
:1006900008F44AE08E010F5D1F4F842E912CB12C7F
:1006A000A12CA50194010E94D807E62FB901CA0127
:1006B000EA30F4F4E05DD801EE938D01232B242B76
:1006C000252B79F790E080E0109719F0CD010E947A
:1006D0002903A1960FB6F894DEBF0FBECDBFDF9100
:1006E000CF911F910F91BF90AF909F908F900895E1
:1006F000E95CE1CFCF93DF930E942903EC0182E113
:1007000091E00E9429038C0F9D1FDF91CF910895E6
:100710001F920F920FB60F9211242F933F934F9376
:100720005F936F937F938F939F93AF93BF93EF9359
:10073000FF9380E692E00E94DB01FF91EF91BF9171
:10074000AF919F918F917F916F915F914F913F9169
:100750002F910F900FBE0F901F9018951F920F9220
:100760000FB60F9211242F938F939F93EF93FF93C4
:10077000E0917002F09171028081E0917602F09137
:10078000770282FD1BC09081809179028F5F8F7309
:1007900020917A02821741F0E0917902F0E0E05A6C
:1007A000FD4F958F80937902FF91EF919F918F91EB
:1007B0002F910F900FBE0F901F9018958081F4CF4E
:1007C0001F920F920FB60F9211242F933F938F9386
:1007D0009F93AF93BF938091580290915902A0913B
:1007E0005A02B0915B023091570223E0230F2D375C
:1007F00058F50196A11DB11D209357028093580210
:1008000090935902A0935A02B0935B0280915C02CC
:1008100090915D02A0915E02B0915F020196A11DD0
:10082000B11D80935C0290935D02A0935E02B09331
:100830005F02BF91AF919F918F913F912F910F9048
:100840000FBE0F901F90189526E8230F0296A11D4A
:10085000B11DD2CF1F920F920FB60F9211242F937A
:100860003F934F935F936F937F938F939F93AF9338
:10087000BF93CF93DF93EF93FF9380915602C09184
:100880002103D0E087FF24C01092850010928400DD
:10089000809156028F5F8093560280915602082EF7
:1008A000000C990B8C179D0724F4809156028C3014
:1008B000C4F18091840090918500049680349C4915
:1008C00008F47AC08091840090918500049676C0E7
:1008D00080915602082E000C990B8C179D07C4F6C8
:1008E000E09156028E2FEE0F990BFC01EE0FFF1FC9
:1008F000E80FF91FE350FD4F808186FFC9CFE091DB
:1009000056028E2FEE0F990BFC01EE0FFF1FE80F22
:10091000F91FE350FD4F808160E08F730E949302C6
:10092000B7CF2091840030918500E09156028E2F40
:10093000EE0F990BFC01EE0FFF1FE80FF91FE350BC
:10094000FD4F81819281820F931F90938900809344
:100950008800E09156028E2FEE0F990BFC01EE0FEE
:10096000FF1FE80FF91FE350FD4F808186FF11C084
:10097000E09156028E2FEE0F990BFC01EE0FFF1F38
:10098000E80FF91FE350FD4F808161E08F730E94F3
:100990009302FF91EF91DF91CF91BF91AF919F9122
:1009A0008F917F916F915F914F913F912F910F9018
:1009B0000FBE0F901F90189580E49CE990938900DA
:1009C000809388008FEF80935602E3CF10926302EA
:1009D0001092620288EE93E0A0E0B0E0809364029F
:1009E00090936502A0936602B093670284E091E061
:1009F000909361028093600285EC90E090936D0289
:100A000080936C0284EC90E090936F0280936E026E
:100A100080EC90E0909371028093700281EC90E002
:100A2000909373028093720282EC90E0909375022F
:100A30008093740286EC90E0909377028093760224
:100A40001092790210927A0210927B0210927C022C
:100A5000809121038C3098F491E0980F90932103BA
:100A60008093220390E0FC01EE0FFF1FE80FF91FB7
:100A7000E350FD4F88EB9BE09283818308958FEFD5
:100A8000809322030895789484B5826084BD84B5F0
:100A9000816084BD85B5826085BD85B5816085BD79
:100AA00080916E00816080936E0010928100809131
:100AB00081008260809381008091810081608093B9
:100AC0008100809180008160809380008091B100DE
:100AD00084608093B1008091B00081608093B00009
:100AE00080917A00846080937A0080917A0082609D
:100AF00080937A0080917A00816080937A0080915F
:100B00007A00806880937A001092C100E0917002B0
:100B1000F091710282E08083E0916C02F0916D02AD
:100B20001082E0916E02F0916F028FEC8083109240
:100B30007802E0917402F091750286E08083E09182
:100B40007202F0917302808180618083E091720271
:100B5000F0917302808188608083E0917202F0914D
:100B60007302808180688083E0917202F091730249
:100B700080818F7D808360E08FE00E94C10261E010
:100B80008AE00E94C10260E08AE00E9493028091A4
:100B900022038C3008F051C061E089E00E94C1025C
:100BA00080912203282F30E0F901EE0FFF1FE20FA2
:100BB000F31FE350FD4F9081907C996090831092D9
:100BC0002303109224032CE0622F0E94D309829FFA
:100BD000B001112430E020E0AB01420F531FFA01B5
:100BE000EE0FFF1FE40FF51FE350FD4F908196FDC0
:100BF00016C02F5F3F4F2C30310571F781110FC0A8
:100C00001092800082E08093810010928500109203
:100C10008400B19A80916F00826080936F00E091B0
:100C200022038E2F90E0FC01EE0FFF1FE80FF91F4B
:100C3000E350FD4F80818064808390E080E00E94DB
:100C40008C008CE191E00E947A0320E0222E20E0CB
:100C5000322E8EE00E94F202EC01EDEBF0E0849186
:100C6000E9EAF0E01491E5E9F0E00491002309F4E9
:100C7000C1C081110E946A02E02FF0E0EE0FFF1F59
:100C8000E458FF4FA591B4918C91182391E080E036
:100C900009F490E0092F182F80E10E94F202BC01B4
:100CA000990F880B990B0E94AC0820E030E040E8D7
:100CB0005AE30E94610920E030E04AEF53E40E94C9
:100CC00061096B017C018EE491E00E9429034E01D1
:100CD0000D2E000CAA08BB084AE0C501B401B7FEFE
:100CE0000DC06DE280E692E00E94FD016627772745
:100CF000CB01681979098A099B094AE00E943603E9
:100D000086E591E00E94290388E191E00115110533
:100D100011F485E191E00E94290385E492E00E94AC
:100D20002903A7019601C701B6010E94CE098823B5
:100D300009F463C080E691E00E9429038CE691E00B
:100D40000E947A03CC32F1E0DF070CF4E8C020E027
:100D500030E040EF51E4C701B6010E945C0987FD15
:100D6000DEC00E94F1008A35910541F08AE590E0ED
:100D70000E948C008FE691E00E947A03012B09F01B
:100D8000DEC061E08AE00E94930282EE91E00E9460
:100D90007A030E9404036B017C0188EE882E83E0B5
:100DA000982EA12CB12C0E9404036C197D098E0988
:100DB0009F09683E734081059105A8F381E0881A78
:100DC0009108A108B108E8EECE0EE3E0DE1EE11CBA
:100DD000F11C81149104A104B10429F721143104F8
:100DE00009F437CF0E94C701882309F432CF0E944B
:100DF00000002FCF10E000E04FCF46015701E894EC
:100E0000B7F82FEF3FEF4FE75FE7C501B4010E944E
:100E1000CE0981110DC02FEF3FEF4FE75FE7C5010E
:100E2000B4010E94760818161CF484E691E084CF81
:100E30002FEF3FEF4FE75FE4C701B6010E945C0967
:100E400018161CF488E691E077CF2FEF3FEF4FE7BD
:100E50005FECC701B6010E94760887FDF3CF20E062
:100E600030E0A901C701B6010E94760887FF54C08F
:100E70006DE280E692E00E94FD01C701B601905844
:100E80002AE037ED43EA5BE30E940A082B013C01AC
:100E90000E947B084B015C010E94AA089B01AC01E7
:100EA000C301B2010E9409082B013C014AE0C501BF
:100EB000B4010E9436036EE280E692E00E94FD01DA
:100EC00020E030E040E251E4C301B2010E94610938
:100ED0002B013C010E947B084B01B12CA12C4AE064
:100EE000C501B4010E943603C501B4010E94AA08DD
:100EF0009B01AC01C301B2010E94090820E030E06F
:100F000040E251E40E9461090E947B0890E080E089
:100F10004AE00E94360312CFC701B601B1CF0E944A
:100F2000F100892B41F090E080E00E948C008AEA79
:100F300091E00E947A03CC32D1400CF01FCF60E0E8
:100F40008AE00E94930289E192E021CF052E97FB6F
:100F50001EF400940E94BD0757FD07D00E94D807D9
:100F600007FC03D04EF40C94BD0750954095309586
:100F700021953F4F4F4F5F4F089590958095709505
:100F800061957F4F8F4F9F4F08950E94FA07A59F4D
:100F9000900DB49F900DA49F800D911D1124089574
:100FA000B7FF0C94C5070E94C507821B930B0895D9
:100FB000A1E21A2EAA1BBB1BFD010DC0AA1FBB1F5D
:100FC000EE1FFF1FA217B307E407F50720F0A21BCF
:100FD000B30BE40BF50B661F771F881F991F1A943C
:100FE00069F760957095809590959B01AC01BD0166
:100FF000CF010895A29FB001B39FC001A39F700DC0
:10100000811D1124911DB29F700D811D1124911D10
:1010100008955058BB27AA270E9421080C94220942
:101020000E94140938F00E941B0920F039F49F3FF8
:1010300019F426F40C9411090EF4E095E7FB0C94D6
:101040000B09E92F0E94330958F3BA176207730797
:101050008407950720F079F4A6F50C9455090EF451
:10106000E0950B2EBA2FA02D0B01B90190010C01B8
:10107000CA01A0011124FF27591B99F0593F50F4D0
:10108000503E68F11A16F040A22F232F342F442728
:10109000585FF3CF469537952795A795F040539520
:1010A000C9F77EF41F16BA0B620B730B840BBAF0F0
:1010B0009150A1F0FF0FBB1F661F771F881FC2F75B
:1010C0000EC0BA0F621F731F841F48F4879577956F
:1010D0006795B795F7959E3F08F0B0CF9395880F29
:1010E00008F09927EE0F9795879508950E94E708D5
:1010F00008F481E008950E943B0988F09F5798F01A
:10110000B92F9927B751B0F0E1F0660F771F881F0C
:10111000991F1AF0BA95C9F714C0B13091F00E9426
:101120005509B1E008950C945509672F782F882749
:10113000B85F39F0B93FCCF3869577956795B3954D
:10114000D9F73EF490958095709561957F4F8F4FBC
:101150009F4F0895E89409C097FB3EF490958095C1
:10116000709561957F4F8F4F9F4F9923A9F0F92F6D
:1011700096E9BB279395F695879577956795B795EB
:10118000F111F8CFFAF4BB0F11F460FF1BC06F5FD1
:101190007F4F8F4F9F4F16C0882311F096E911C0E3
:1011A000772321F09EE8872F762F05C0662371F004
:1011B00096E8862F70E060E02AF09A95660F771F18
:1011C000881FDAF7880F9695879597F90895990FF4
:1011D0000008550FAA0BE0E8FEEF16161706E80701
:1011E000F907C0F012161306E407F50798F0621B22
:1011F000730B840B950B39F40A2661F0232B242BF7
:10120000252B21F408950A2609F4A140A6958FEF15
:10121000811D811D089597F99F6780E870E060E067
:1012200008959FEF80EC089500240A94161617067F
:1012300018060906089500240A94121613061406C7
:1012400005060895092E0394000C11F4882352F02A
:10125000BB0F40F4BF2B11F460FF04C06F5F7F4FE2
:101260008F4F9F4F089557FD9058440F551F59F0C9
:101270005F3F71F04795880F97FB991F61F09F3F83
:1012800079F087950895121613061406551FF2CFAC
:101290004695F1DF08C0161617061806991FF1CFFC
:1012A00086957105610508940895E894BB27662723
:1012B0007727CB0197F908950E94E70808F48FEF8C
:1012C00008950E9474090C9422090E94140938F0B0
:1012D0000E941B0920F0952311F00C940B090C942B
:1012E000110911240C9456090E94330970F3959F3B
:1012F000C1F3950F50E0551F629FF001729FBB270D
:10130000F00DB11D639FAA27F00DB11DAA1F649FA8
:101310006627B00DA11D661F829F2227B00DA11D5B
:10132000621F739FB00DA11D621F839FA00D611DE1
:10133000221F749F3327A00D611D231F849F600D02
:10134000211D822F762F6A2F11249F5750409AF02B
:10135000F1F088234AF0EE0FFF1FBB1F661F771FB7
:10136000881F91505040A9F79E3F510580F00C9482
:101370000B090C9456095F3FE4F3983ED4F386952D
:1013800077956795B795F795E7959F5FC1F7FE2B22
:10139000880F911D9695879597F908950E94E70803
:1013A000880B990B0895991B79E004C0991F961733
:1013B00008F0961B881F7A95C9F780950895EE0F5F
:1013C000FF1F0590F491E02D0994F894FFCF0000E1
:1013D0000000FD015D018A014A02BB019901AD01D6
:1013E0000D0A004E6F00596573004175746F6D6191
:1013F0007465642057696E646F7720616E64204362
:101400006C6F74686C696E652053797374656D20B8
:10141000496E697469616C697A6564004C696768D2
:10142000743A2000207C205261696E3A20006E617F
:101430006E00696E66006F76660020430057696E25
:10144000646F77206F70656E6564206475652074C5
:101450006F2073756666696369656E74206C696771
:10146000687420616E6420686967682074656D70B7
:10147000657261747572650057696E646F77206379
:101480006C6F7365642064756520746F206461728D
:101490006B6E6573732C207261696E2C206F7220E5
:1014A0006C6F772074656D7065726174757265001C
:1014B000436C6F74686C696E6520657874656E64E2
:1014C00065642064756520746F2073756666696352
:1014D00069656E74206C6967687420616E64206E43
:1014E0006F207261696E00436C6F74686C696E6521
:1014F000207265747261637465642064756520741C
:101500006F207261696E206F72206461726B6E650C
:10151000737300207C2054656D7065726174757200
:04152000653A200008
:107E0000112484B714BE81FFF0D085E080938100F7
:107E100082E08093C00088E18093C10086E0809377
:107E2000C20080E18093C4008EE0C9D0259A86E02C
:107E300020E33CEF91E0309385002093840096BBD3
:107E4000B09BFECF1D9AA8958150A9F7CC24DD24C4
:107E500088248394B5E0AB2EA1E19A2EF3E0BF2EE7
:107E6000A2D0813461F49FD0082FAFD0023811F036
:107E7000013811F484E001C083E08DD089C08234E0
:107E800011F484E103C0853419F485E0A6D080C0E4
:107E9000853579F488D0E82EFF2485D0082F10E0AE
:107EA000102F00270E291F29000F111F8ED06801E7
:107EB0006FC0863521F484E090D080E0DECF843638
:107EC00009F040C070D06FD0082F6DD080E0C81688
:107ED00080E7D80618F4F601B7BEE895C0E0D1E017
:107EE00062D089930C17E1F7F0E0CF16F0E7DF06D8
:107EF00018F0F601B7BEE89568D007B600FCFDCFD4
:107F0000A601A0E0B1E02C9130E011968C91119780
:107F100090E0982F8827822B932B1296FA010C0160
:107F200087BEE89511244E5F5F4FF1E0A038BF0790
:107F300051F7F601A7BEE89507B600FCFDCF97BE46
:107F4000E89526C08437B1F42ED02DD0F82E2BD052
:107F50003CD0F601EF2C8F010F5F1F4F84911BD097
:107F6000EA94F801C1F70894C11CD11CFA94CF0C13
:107F7000D11C0EC0853739F428D08EE10CD085E9AC
:107F80000AD08FE07ACF813511F488E018D01DD067
:107F900080E101D065CF982F8091C00085FFFCCF94
:107FA0009093C60008958091C00087FFFCCF809118
:107FB000C00084FD01C0A8958091C6000895E0E648
:107FC000F0E098E1908380830895EDDF803219F02E
:107FD00088E0F5DFFFCF84E1DECF1F93182FE3DFCA
:107FE0001150E9F7F2DF1F91089580E0E8DFEE27F6
:047FF000FF270994CA
:027FFE00040479
:00000001FF
